:1000000019C033C032C031C030C02FC02EC02DC087
:100010002CC02CC02AC029C028C027C026C025C09B
:1000200024C023C022C021C020C01FC01EC01DC0CC
:100030001CC01BC011241FBECFEFD2E0DEBFCDBF5E
:1000400011E0A0E0B1E0E2ECF1E002C005900D9219
:10005000AC30B107D9F711E0ACE0B1E001C01D92BE
:10006000AF30B107E1F75ED0AAC0CACF1F920F929E
:100070000FB60F9211248F9380910E018C3190F165
:1000800080910D01853041F480910C01893021F47B
:1000900080910001893021F1809100018930D9F4EB
:1000A0001092000180910D01853079F410920D01BC
:1000B00080910C01893019F410920C0111C08091CB
:1000C0000C018F5F80930C010BC080910D018F5F3D
:1000D00080930D0105C0809100018F5F8093000126
:1000E00010920E0180910E018F5F80930E018F910F
:1000F0000F900FBE0F901F90189587E08093B1006E
:1001000081E08093700008958FEF8AB98CE187B900
:1001100015B81BB887E08093B10081E08093700030
:1001200078940895DF93CF93CDB7DEB72A970FB6B3
:10013000F894DEBF0FBECDBFE7DFDE011196E1E030
:10014000F1E08AE001900D928150E1F720E0BE01DC
:100150006F5F7F4F40EA5FE02FC0222379F4449A1B
:1001600080910C01FB01E80FF11D808180958BB916
:10017000CA010197F1F7449820E01DC0213071F4C5
:10018000439A80910D01FB01E80FF11D808180955C
:100190008BB9CA010197F1F743980DC0429A80913B
:1001A0000001FB01E80FF11D808180958BB9CA0128
:1001B0000197F1F742982F5F233088F6CECFF8945D
:0201C000FFCF6F
:0C01C200013F065B4F666DFD077FEF00FC
:00000001FF
